{
  "_format": "hh-sol-artifact-1",
  "contractName": "BalancerLiquidityProvider",
  "sourceName": "contracts/BalancerLiquidityProvider.sol",
  "abi": [
    {
      "inputs": [
        {
          "internalType": "contract IVault",
          "name": "vault",
          "type": "address"
        }
      ],
      "stateMutability": "nonpayable",
      "type": "constructor"
    },
    {
      "inputs": [
        {
          "internalType": "bytes32",
          "name": "poolId",
          "type": "bytes32"
        }
      ],
      "name": "exitPool",
      "outputs": [],
      "stateMutability": "nonpayable",
      "type": "function"
    },
    {
      "inputs": [
        {
          "internalType": "bytes32",
          "name": "poolId",
          "type": "bytes32"
        }
      ],
      "name": "initializePool",
      "outputs": [],
      "stateMutability": "nonpayable",
      "type": "function"
    },
    {
      "inputs": [
        {
          "internalType": "bytes32",
          "name": "poolId",
          "type": "bytes32"
        }
      ],
      "name": "joinPool",
      "outputs": [],
      "stateMutability": "nonpayable",
      "type": "function"
    }
  ],
  "bytecode": "0x60a060405234801561001057600080fd5b50604051610a86380380610a8683398101604081905261002f91610044565b60601b6001600160601b031916608052610072565b600060208284031215610055578081fd5b81516001600160a01b038116811461006b578182fd5b9392505050565b60805160601c6109d46100b260003960008181609a0152818161022b015281816102bc01528181610438015281816104cf015261060301526109d46000f3fe608060405234801561001057600080fd5b50600436106100415760003560e01c8063511239f01461004657806365a41dbd1461005b5780637f3cdc4a1461006e575b600080fd5b61005961005436600461079c565b610081565b005b61005961006936600461079c565b6102a3565b61005961007c36600461079c565b6104b6565b604051631f29a8cd60e31b8152600481018290526000907f00000000000000000000000000000000000000000000000000000000000000006001600160a01b03169063f94d46689060240160006040518083038186803b1580156100e457600080fd5b505afa1580156100f8573d6000803e3d6000fd5b505050506040513d6000823e601f3d908101601f1916820160405261012091908101906106c2565b50509050600061012d8290565b90506000825167ffffffffffffffff81111561015957634e487b7160e01b600052604160045260246000fd5b604051908082528060200260200182016040528015610182578160200160208202803683370190505b50905060005b83518110156101d1576000198282815181106101b457634e487b7160e01b600052603260045260246000fd5b6020908102919091010152806101c981610961565b915050610188565b506040805180820182526002815261060f60f31b6020808301919091528251608081018452858152908101849052808301829052600060608201819052925163172b958560e31b8152919291309033906001600160a01b037f0000000000000000000000000000000000000000000000000000000000000000169063b95cac2890610266908c908690869089906004016108d0565b600060405180830381600087803b15801561028057600080fd5b505af1158015610294573d6000803e3d6000fd5b50505050505050505050505050565b604051631f29a8cd60e31b8152600481018290526000907f00000000000000000000000000000000000000000000000000000000000000006001600160a01b03169063f94d46689060240160006040518083038186803b15801561030657600080fd5b505afa15801561031a573d6000803e3d6000fd5b505050506040513d6000823e601f3d908101601f1916820160405261034291908101906106c2565b505090506000815167ffffffffffffffff81111561037057634e487b7160e01b600052604160045260246000fd5b604051908082528060200260200182016040528015610399578160200160208202803683370190505b50905060005b82518110156103e8576000198282815181106103cb57634e487b7160e01b600052603260045260246000fd5b6020908102919091010152806103e081610961565b91505061039f565b506040805180820182526002815261060f60f31b602080830191909152825160808101845285815290810184905280830182905260006060820152915163172b958560e31b8152909190309033907f00000000000000000000000000000000000000000000000000000000000000006001600160a01b03169063b95cac289061047b908a908690869089906004016108d0565b600060405180830381600087803b15801561049557600080fd5b505af11580156104a9573d6000803e3d6000fd5b5050505050505050505050565b604051631f29a8cd60e31b8152600481018290526000907f00000000000000000000000000000000000000000000000000000000000000006001600160a01b03169063f94d46689060240160006040518083038186803b15801561051957600080fd5b505afa15801561052d573d6000803e3d6000fd5b505050506040513d6000823e601f3d908101601f1916820160405261055591908101906106c2565b505090506000815167ffffffffffffffff81111561058357634e487b7160e01b600052604160045260246000fd5b6040519080825280602002602001820160405280156105ac578160200160208202803683370190505b50905060008060405180608001604052806105c48690565b815260200184815260200160405180604001604052806002815260200161060f60f31b81525081526020018315158152509050600030905060003390507f00000000000000000000000000000000000000000000000000000000000000006001600160a01b0316638bdb3913888484876040518563ffffffff1660e01b815260040161047b94939291906108d0565b600082601f830112610663578081fd5b815160206106786106738361093d565b61090c565b80838252828201915082860187848660051b8901011115610697578586fd5b855b858110156106b557815184529284019290840190600101610699565b5090979650505050505050565b6000806000606084860312156106d6578283fd5b835167ffffffffffffffff808211156106ed578485fd5b818601915086601f830112610700578485fd5b815160206107106106738361093d565b8083825282820191508286018b848660051b890101111561072f57898afd5b8996505b848710156107655780516001600160a01b0381168114610751578a8bfd5b835260019690960195918301918301610733565b509189015191975090935050508082111561077e578384fd5b5061078b86828701610653565b925050604084015190509250925092565b6000602082840312156107ad578081fd5b5035919050565b6000815180845260208085019450808401835b838110156107e3578151875295820195908201906001016107c7565b509495945050505050565b60008151808452815b81811015610813576020818501810151868301820152016107f7565b818111156108245782602083870101525b50601f01601f19169290920160200192915050565b8051608080845281519084018190526000916020919082019060a0860190845b8181101561087e5783516001600160a01b031683529284019291840191600101610859565b50508285015191508581038387015261089781836107b4565b92505050604083015184820360408601526108b282826107ee565b91505060608301516108c8606086018215159052565b509392505050565b8481526001600160a01b0384811660208301528316604082015260806060820181905260009061090290830184610839565b9695505050505050565b604051601f8201601f1916810167ffffffffffffffff8111828210171561093557610935610988565b604052919050565b600067ffffffffffffffff82111561095757610957610988565b5060051b60200190565b600060001982141561098157634e487b7160e01b81526011600452602481fd5b5060010190565b634e487b7160e01b600052604160045260246000fdfea26469706673582212200c8695e80d53c5b370b4ec6cf8609f5fd796bbaa16852094d97fdd20d03a69aa64736f6c63430008040033",
  "linkReferences": {},
  "deployedLinkReferences": {}
}